{
  "contractName": "PayableContract",
  "abi": [
    {
      "anonymous": false,
      "inputs": [
        {
          "indexed": false,
          "name": "tokensCount",
          "type": "uint256"
        },
        {
          "indexed": false,
          "name": "walletAddr",
          "type": "address"
        },
        {
          "indexed": false,
          "name": "personalHash",
          "type": "bytes32"
        }
      ],
      "name": "buyToken",
      "type": "event"
    },
    {
      "anonymous": false,
      "inputs": [
        {
          "indexed": false,
          "name": "personalHash",
          "type": "bytes32"
        }
      ],
      "name": "hashAdded",
      "type": "event"
    },
    {
      "anonymous": false,
      "inputs": [
        {
          "indexed": false,
          "name": "personalHash",
          "type": "bytes32"
        }
      ],
      "name": "hashRemoved",
      "type": "event"
    },
    {
      "constant": false,
      "inputs": [
        {
          "name": "personalHash",
          "type": "bytes32"
        }
      ],
      "name": "addHash",
      "outputs": [
        {
          "name": "success",
          "type": "bool"
        }
      ],
      "payable": false,
      "stateMutability": "nonpayable",
      "type": "function"
    },
    {
      "constant": false,
      "inputs": [
        {
          "name": "personalHash",
          "type": "bytes32"
        }
      ],
      "name": "removeHash",
      "outputs": [
        {
          "name": "success",
          "type": "bool"
        }
      ],
      "payable": false,
      "stateMutability": "nonpayable",
      "type": "function"
    },
    {
      "constant": true,
      "inputs": [
        {
          "name": "personalHash",
          "type": "bytes32"
        }
      ],
      "name": "isHashValid",
      "outputs": [
        {
          "name": "isValid",
          "type": "bool"
        }
      ],
      "payable": false,
      "stateMutability": "view",
      "type": "function"
    },
    {
      "constant": false,
      "inputs": [
        {
          "name": "userHash",
          "type": "bytes32"
        }
      ],
      "name": "buyTokens",
      "outputs": [
        {
          "name": "success",
          "type": "bool"
        }
      ],
      "payable": true,
      "stateMutability": "payable",
      "type": "function"
    }
  ],
  "bytecode": "0x608060405234801561001057600080fd5b50610440806100206000396000f300608060405260043610610062576000357c0100000000000000000000000000000000000000000000000000000000900463ffffffff1680632ea2ee1b1461006757806343e08ad1146100b0578063ea7000d6146100f9578063ef5d533114610135575b600080fd5b34801561007357600080fd5b50610096600480360381019080803560001916906020019092919050505061017e565b604051808215151515815260200191505060405180910390f35b3480156100bc57600080fd5b506100df6004803603810190808035600019169060200190929190505050610211565b604051808215151515815260200191505060405180910390f35b61011b60048036038101908080356000191690602001909291905050506102a4565b604051808215151515815260200191505060405180910390f35b34801561014157600080fd5b50610164600480360381019080803560001916906020019092919050505061037e565b604051808215151515815260200191505060405180910390f35b60008060010282600019161415151561019657600080fd5b6000806000846000191660001916815260200190815260200160002060006101000a81548160ff0219169083151502179055507f2994240df7002c12109f852c47e1e089a6cc764a12f4b2f9ddfc77d1692f9a848260405180826000191660001916815260200191505060405180910390a160019050919050565b60008060010282600019161415151561022957600080fd5b6001600080846000191660001916815260200190815260200160002060006101000a81548160ff0219169083151502179055507ffdc87c792f90bb1c1cc9eedcbbf387e225d3726c13c4a1f97d3ecc8bef932b158260405180826000191660001916815260200191505060405180910390a160019050919050565b600080600060015434101515156102ba57600080fd5b6102c38461037e565b15156102ce57600080fd5b6102e3600154346103c590919063ffffffff16565b91506102fa600154346103ef90919063ffffffff16565b90507fca5105e3cf66153f6675334191c4ba76572ce6de78c889351b9e9428979c4695823386604051808481526020018373ffffffffffffffffffffffffffffffffffffffff1673ffffffffffffffffffffffffffffffffffffffff1681526020018260001916600019168152602001935050505060405180910390a15050919050565b60008060010282600019161415151561039657600080fd5b600080836000191660001916815260200190815260200160002060009054906101000a900460ff169050919050565b6000806000831115156103d757600080fd5b82848115156103e257fe5b0490508091505092915050565b600080821415151561040057600080fd5b818381151561040b57fe5b069050929150505600a165627a7a723058200f518837d5c565696dff0785ffc76f7995157648a07e4d13c8acae74c48a48250029",
  "source": "pragma solidity ^0.4.24;\n\nimport 'openzeppelin-solidity/contracts/math/SafeMath.sol';\n\ncontract PayableContract {\n    using SafeMath for uint256;\n\n    event buyToken(uint tokensCount, address walletAddr, bytes32 personalHash);\n    event hashAdded(bytes32 personalHash);\n    event hashRemoved(bytes32 personalHash);\n\n    mapping(bytes32 => bool) isValidHash;\n\n    uint tokenCosts;\n\n    function addHash(bytes32 personalHash) public returns (bool success) {\n        require(personalHash != 0);\n        isValidHash[personalHash] = true;\n        emit hashAdded(personalHash);\n        return true;\n\n    }\n\n    function removeHash(bytes32 personalHash) public returns (bool success) {\n        require(personalHash != 0);\n        isValidHash[personalHash] = false;\n        emit hashRemoved(personalHash);\n        return true;\n    }\n\n    function isHashValid(bytes32 personalHash)public view returns (bool isValid) {\n        require(personalHash != 0);\n        return isValidHash[personalHash];\n    }\n\n    function buyTokens(bytes32 userHash)public payable returns (bool success) {\n        require(msg.value >= tokenCosts);\n        require(isHashValid(userHash));\n        uint buyedTokens = msg.value.div(tokenCosts);\n        uint rest = msg.value.mod(tokenCosts);\n        emit buyToken(buyedTokens, msg.sender, userHash);\n\n    }\n}",
  "sourcePath": "/root/IdeaProjects/storage_smart_contract/contracts/PayableContract.sol",
  "compiler": {
    "name": "solc",
    "version": "0.4.24+commit.e67f0147.Emscripten.clang"
  },
  "schemaVersion": "2.0.1",
  "updatedAt": "2018-10-24T16:42:21.764Z"
}